:020000040800F2
:10000000D0590020050300088D3B00080339000883
:10001000893B00081D1D00089946000800000000EB
:100020000000000000000000000000004502000881
:10003000CF1D000800000000A1020008153D0008C7
:100040001F0300081F0300081F0300081F03000808
:100050001F0300081F0300081F0300081F030008F8
:100060001F0300081F0300081F0300081F030008E8
:100070001F0300081F0300081F0300081F030008D8
:100080001F0300081F0300081F0300081F030008C8
:100090001F0300081F0300081F0300081F030008B8
:1000A0001F0300081F0300081F0300081F030008A8
:1000B0001F030008ED3D00081F0300081F03000890
:1000C0001F0300081F0300081F0300081F03000888
:1000D0001F0300084D4600081F030008894600085A
:1000E0001F0300081F0300081F0300081F03000868
:1000F0001F030008FD3D00081F0300081F03000840
:100100001F0300081F0300081F0300081F03000847
:100110001F0300081F0300081F0300081F03000837
:100120001F0300081F0300081F0300081F03000827
:100130001F0300081F0300081F0300081F03000817
:100140001F0300081F0300081F0300081F03000807
:100150001F0300081F0300081F0300081F030008F7
:100160001F0300081F0300081F0300081F030008E7
:100170001F0300081F0300081F0300080000000001
:100180001F0300081F03000800F002F800F04AF8FF
:100190000AA090E8000C82448344AAF10107DA45E2
:1001A00001D100F03FF8AFF2090EBAE80F0013F0EA
:1001B000010F18BFFB1A43F0010318471C6500002C
:1001C0003C650000103A24BF78C878C1FAD85207BD
:1001D00024BF30C830C144BF04680C6070470000C1
:1001E0000023002400250026103A28BF78C1FBD840
:1001F000520728BF30C148BF0B6070471FB506F0DB
:100200008AF900F0CFFC04000020002105F00AFF6D
:10021000401C60600020002105F0EEFEE0601FBD84
:1002200010B510BD00F000FF1146FFF7E7FF04F026
:10023000C9FD01F051F903B4FFF7F2FF03BC01F06F
:10024000A3F900002C4B19680868B0E8F04F80F360
:100250000988BFF36F8F4FF0000080F3118870475B
:100260000000000008480068006880F308884FF02C
:10027000000080F3148862B661B6BFF34F8FBFF3FE
:100280006F8F00DF00BF00BF08ED00E0DFF80C005B
:10029000016841F470010160704700BF88ED00E023
:1002A000EFF30980BFF36F8F134B1A681EF0100F26
:1002B00008BF20ED108A20E9F04F106009B44FF01C
:1002C000500080F31188BFF34F8FBFF36F8F05F09D
:1002D000A1FB4FF0000080F3118809BC1968086881
:1002E000B0E8F04F1EF0100F08BFB0EC108A80F39A
:1002F0000988BFF36F8F704700000020EFF305807F
:10030000704700000948804709480047FEE7FEE7BC
:10031000FEE7FEE7FEE7FEE7FEE7FEE7FEE7FEE7B5
:1003200004480549054A064B70470000D93D0008BE
:1003300089010008D0530020D0590020D05500205A
:10034000D055002053EA020C00F069802DE9F04BF3
:100350004FF00006002B1FBFB3FA83F503FA05F434
:1003600024FA05F65E4012BF1643B2FA82F502FA8D
:1003700005F4C5F120051EBF22FA05FC44EA0C0471
:10038000203556EA044C4FEA144418BF641C4FF061
:1003900000084FF00009904271EB030C39D300299B
:1003A00019BFB1FA81F701FA07F6B0FA80F700FA3F
:1003B00007F6C7F120071EBF20FA07FC46EA0C0625
:1003C0002037B6FBF4FCA7EB0507103F07F01F0B27
:1003D000CBF120060CFA0BFB2CFA06F644BFB34611
:1003E0000026202FA4BF5E464FF0000B5BEA060CF0
:1003F00008BF4FF0010B19EB0B09ABFB027C48EB7C
:100400000608C01B06FB02CC0BFB03CC71EB0C01F6
:10041000C1E70B46024641464846BDE8F08B13B59E
:100420004FF000004FF00001AFF30080BDE81C402A
:100430007047B2F120030AD5C2F1200301FA02F19C
:1004400020FA03F300FA02F041EA0301704700FAD0
:1004500003F14FF0000070470FB400B58DB010A944
:10046000099000910B904FF0FF300A9000200C9003
:10047000064878440690064878446A4607900F99E3
:1004800009A800F05FFB0DB05DF814FBEF0600005B
:1004900007070000032A40F2308010F0030C00F040
:1004A000158011F8013BBCF1020F624498BF11F8AE
:1004B00001CB00F8013B38BF11F8013BA2F1040267
:1004C00098BF00F801CB38BF00F8013B11F00303DF
:1004D00000F02580083AC0F0088051F8043B083A43
:1004E00051F804CBA0E80810F5E7121D5CBF51F8E5
:1004F000043B40F8043BAFF30080D20724BF11F85F
:10050000013B11F801CB48BF11F8012B24BF00F8C3
:10051000013B00F801CB48BF00F8012B704710B534
:10052000203AC0F00B80B1E81850203AA0E81850EB
:10053000B1E81850A0E81850BFF4F5AF5FEA027CAC
:1005400024BFB1E81850A0E8185044BF18C918C01B
:10055000BDE810405FEA827C24BF51F8043B40F8BC
:10056000043B08BF7047D20728BF31F8023B48BFA1
:1005700011F8012B28BF20F8023B48BF00F8012BDF
:10058000704702F0FF0343EA032242EA024200F00E
:1005900002B84FF000020429C0F0128010F0030CE2
:1005A00000F01B80CCF1040CBCF1020F18BF00F866
:1005B000012BA8BF20F8022BA1EB0C0100F00DB815
:1005C0005FEAC17C24BF00F8012B00F8012B48BF73
:1005D00000F8012B70474FF0000200B51346944617
:1005E0009646203922BFA0E80C50A0E80C50B1F18B
:1005F0002001BFF4F7AF090728BFA0E80C5048BF9F
:100600000CC05DF804EB890028BF40F8042B08BF3C
:10061000704748BF20F8022B11F0804F18BF00F838
:10062000012B704770477047704710B500F0BEFA55
:10063000006810BD10B5044600F0B8FA046010BDA3
:100640002DE9FF4F06468BB00878FF2806D0491CDD
:100650002D2805D000244FF0000908E000200CE010
:100660000124F8E709EB8903491C00EB43090878EA
:10067000FF28F7D114B1C9F1000081461078002598
:100680002C46AA4629462D2801D02B2804D1521CDD
:100690002D2813D0002082468B461078FF280FD0DB
:1006A0004FF0000C0A21521CA5FB017804FB0181CC
:1006B00005FB0C11C5194BEB0104EEE70120EAE73D
:1006C000002108464FF00000BAF1000F02D000EB05
:1006D00080004008C0F38157012F01DD4FF0FF3744
:1006E0000E9955EA040009EB01080BD04FF00209FE
:1006F00018F5FA7F16DA4FEACA70002F706008DD2D
:10070000012007E04FEACA70C6E900B00FB0BDE8AB
:10071000F08F0020306000F049FAC0F800901821F6
:10072000084616E0B8F5FA7F18DD002F02DAF74820
:10073000784401E0F6487844D0E90010C6E900109A
:1007400040EACA70706000F031FAC0F800901421DD
:1007500008460FB0BDE8F04F05F0E7BE002108469F
:100760004FF00000B8F10001099002DAC7F1000271
:1007700000E03A4601DAC8F1000106A800F0DEFB0D
:1007800006AB93E8070003AB83E8070044F23E00A2
:100790005BEA04010090584604D144F21E012C4645
:1007A0005D460091210C0904014306D100992404FF
:1007B00044EA15442D041039009104F07F410143AF
:1007C00006D10099240244EA15642D0208390091EB
:1007D00004F07041014306D10099240144EA1574E4
:1007E0002D01091F009104F04041014306D10099F9
:1007F000A40044EA9574AD00891E009104F0004104
:10080000084304D100986D196441401E00904FF0D8
:1008100001033A466846B8F1000FCDE9014503A946
:1008200002DD01F044F901E001F017F9BAF1000F1F
:1008300004460D4601D084F00044002108464FF0E4
:100840000000099940F2FF77484010F00C0F07D1E3
:1008500024F00040284303D0C4F30A50B84212D118
:1008600000F0A4F9C0F80090C4F30A50B8420AD1CD
:10087000A8487844D0E90010C6E9001004F000410F
:100880000843706042E7C6E900543FE72DE9FF4F97
:100890001F464FF0000A4FF0FF38454691B0D7E9A8
:1008A0000146CDF83CA000F07DF9C0680168405CCD
:1008B0001090B96912986D1C8847396A814688473B
:1008C0000028F6D1B9F1FF3F0AD0002E24F4D064FD
:1008D00011DDB9F12B0F08D0B9F12D0F0BD102E0CA
:1008E000404615B013E744F48064B96912986D1C52
:1008F0008847761E8146600504A901D52D2000E0B9
:100900002B20002E01F1010B0DF130088DF81000A5
:100910003FDDB9F1690F08D0B9F1490F05D0B9F140
:100920006E0F02D0B9F14E0F1CD13B4601A80095C5
:1009300080E85002DDE912126FF0020005F05CFE63
:10094000C11CCED10EE0B96912986D1C8847814652
:100950001398761E44F4007405600F98401C002E16
:100960000F9016DDB9F1300FEDD0B9F1780F02D04C
:10097000B9F1580F0DD10F9801280AD13B46CDE9A6
:100980000054DDE91212001F029605F033FEC11C6F
:10099000A7D1109989453ED144F0800406E013990F
:1009A000681CAAF1010A44F400740860B9696D1C5E
:1009B0001298761E884730288146F0D02BE0109997
:1009C000894505D1200603D4761E44F0800418E042
:1009D000484604F040F908B3761E0DF123018B451B
:1009E00044F4007408D2A9F130000BF8010B200682
:1009F00007D5AAF1010003E0200602D40AF10100A4
:100A00008246A00502D51399681C0860B96912983E
:100A10006D1C88478146002ED1DC53E0002E51DD4D
:100A2000B9F1650F02D0B9F1450F4BD1A00549D5F9
:100A3000B9696D1C1298761E24F440748847002E04
:100A400081460CDD2B2804D0B9F12D0F07D144F4D9
:100A50008074B96912986D1C8847761E8146E0053E
:100A600001D52D2100E02B2108F8011BCDF80080D5
:100A700021E0761E0DF13901884544F400740CD252
:100A8000A9F1300010F0FF0088F8000002D10099B1
:100A9000884509D908F1010806E0E00501D51E489E
:100AA00001E042F20F708246B96912986D1C8847C6
:100AB000814613980560002E04DD484604F0CBF80B
:100AC0000028D6D1F96912988847FF2053468BF841
:100AD000000088F8000000200A900B9004AA0CA9DE
:100AE0000AA8FFF7ADFDA00502D46FF00100F8E6FB
:100AF00014F0240F12D0E0071CD13868DDE90A1287
:100B0000031D3B600068C0E9001213E0CC5F0000E9
:100B1000BE5F0000825E0000F1D8FFFF0AA96846B0
:100B200004F086F8E00705D13868009A011D3960A5
:100B3000006802602846D4E6026811441378016018
:100B400018467047D1600549794451610449794498
:100B5000116200211161114600F036B8EDFFFFFF70
:100B600063000000426842B1016811F8013B23B103
:100B7000521EC0E90012184670470121C160881E4C
:100B8000704742685AB1C368016843B983688B42B1
:100B900005D0491E521CC0E90012002070474FF0DA
:100BA000FF307047004870478C5300200048704762
:100BB0006C53002010B5044600F05CFA0068005D3C
:100BC00000F0010010BD00002DE9F34F4FF0000AC6
:100BD0000C4656468DB001200C9001F10C000B9094
:100BE00062690B9801219047051E2DD0252D2CD030
:100BF000216A8847C0B162690B9801219047216A38
:100C000088470028F7D16269411E0B98904700E0A1
:100C1000761CA1690D988847216A88470028F7D17A
:100C2000E1690D988847DBE7A1690D988847A842DC
:100C3000074601D1761CD3E7E1690D9888477F1CF0
:100C400002D1BAF1000F6FD06CE162690B980027F6
:100C50003D46394690472A2804D162690B98012104
:100C600090470125DFF8D08262690B9801219047F7
:100C7000A0F130010A290AD24745E5DC07EB8701DC
:100C800000EB4107303FDFD445F01005ECE7E90603
:100C900001D46FF000476C280AD04C2814D0682883
:100CA00015D06A280DD074281CD07A281AD01DE0DF
:100CB00062690B98012190476C2802D045F0040529
:100CC00014E045F002050DE045F020050AE06269F8
:100CD0000B9801219047682802D045F0080505E0EF
:100CE00045F4006562690B9801219047C4E90157FA
:100CF00065283DD019DC58287AD00CDC452837D03F
:100D000004DC252826D041289ED131E046282FD06A
:100D1000472899D12CE05B2877D0612828D0632818
:100D20007CD0642823D15AE0F7E06F2848D008DC53
:100D300066281DD067281BD0692821D06E2816D1BF
:100D400027E0702845D0732868D0752847D07828C8
:100D50000DD14DE0A1690D988847252805463FF43F
:100D600069AFE1690D9888476D1C3FF46AAFD9E01F
:100D70000D9923466A466FF0010005F039FCC6E084
:100D800045F0400023464FF000026060A80736D4CB
:100D90003EE0E8077FF447AF2068011D216000684E
:100DA000290501D506701BE7290701D5068017E73D
:100DB000A90703D5F117C0E9006111E706600FE745
:100DC00045F0400023464FF008026060A80716D4A3
:100DD0001EE040F60E0125EA0100606016E045F0D5
:100DE000400023464FF00A026060A80707D40FE0D6
:100DF00045F040006060A80708D5234610220D99F1
:100E00006FF00100AFF3008081E007E0102223467D
:100E10000D996FF00100AFF3008078E04FF000090A
:100E200063284F46C8464B46CB4602D05B2807D0C6
:100E300039E02079C00601D40120A060012732E00A
:100E40006269D4F80CB00B98012190475E2807D155
:100E50004FF0010949466269D4F80CB00B989047ED
:100E6000216939B900210A4603AB43F82120491C06
:100E70000829FADBD8B3216949B308F1010862698E
:100E80000B98012190475D28F4D1B9F1000F09D0EA
:100E9000002003A951F82020D24341F82020401C13
:100EA0000828F7DB03AB2069002820794FEA40705F
:100EB0001ED05B462246CDF80080CDE901970D9902
:100EC00000286FF0010020DAAFF300801FE0C117A7
:100ED00003AA00EBD1614B1121F01F0102EB830249
:100EE000411A13680120884003431360C7E719E0E3
:100EF0000D99224600286FF00100009702DAAFF347
:100F0000008004E0AFF3008001E0AFF30080002830
:100F10000ADA401C06D10C9820B14FF0FF300FB018
:100F2000BDE8F08F5046FAE7E90701D10AF1010A5E
:100F3000064400200C9053E6CCCCCC0C2DE9F047B5
:100F4000814616468AB0354878440DC88DE80D00B4
:100F500032487844801C03AC0DC884E80D0041F68B
:100F60009B300844372190FBF1F290FBF1F5A5F19D
:100F7000800501FB12041B3C02D56442012000E005
:100F80000020DFF898A080460027FA44AAF1BE0AA4
:100F90000EE0E0070AD03246684607EB470101231E
:100FA0000AEB810100F06EFD8DE8070064107F1CE4
:100FB000002CEED1194F7F44AE3F19E0E80715D061
:100FC00007EB04100DF1180A90E80E008AE80E00F5
:100FD000C068F04201D1981908903246012306A951
:100FE00003A800F04FFD03AB83E807006D10641CFD
:100FF000002DE3D14FF0010332466946B8F1000FEE
:1010000003A802D000F014FD01E000F03BFDC9E9A7
:101010000001C9F808200AB0BDE8F0877457000045
:10102000004870476C5300207546FFF7F9FFAE4645
:1010300005006946534620F00700854618B020B5E4
:10104000FFF76EF9BDE820404FF000064FF00007B3
:101050004FF000084FF0000B21F00701AC46ACE860
:10106000C009ACE8C009ACE8C009ACE8C0098D46CD
:101070007047000010B5FFF795FD001D10BD00BFC3
:10108000A54F00002DE9FF4F1F464FF03C0987B0E8
:101090004FF00042DDE9141001F10108DDF858A01D
:1010A00002EA40500390002005908346054604461E
:1010B0000490B969461E08988847AAF1010A02906F
:1010C000BAF1000F3BDD02982E2815D0102100F058
:1010D0004DFA00282EDB4FF0010B0599014317D084
:1010E000B9F1000F0BDB4A46C117FFF7A2F9054320
:1010F0000C43A9F1040905E0012004900BE008B1BC
:1011000045F0010501200590049820B9361D02E044
:10111000049800B1361FB969089808F1010888479A
:10112000BBF1000FAAF1010A0290C9D00999C1F8D8
:101130000080C5E70298702808D0502806D0F969C9
:1011400008988847BBF1000F14D04FE000200290B0
:101150000120BBF1000F049009D0B969089808F18B
:1011600001088847AAF10109B9F1000F07DCF96904
:10117000089888476FF001000BB0BDE8F08F2B286E
:1011800004D02D280CD14FF0FF300490B969089895
:1011900008F101088847A9F10109B9F1000FE6DD5E
:1011A000411CE4D00A2100F0E1F90028DFDB0299BC
:1011B00008F1010801EB810100EB41000290B969DF
:1011C000089888470A2100F0D1F9099AA9F1010984
:1011D000B9F1000FC2F8008001DD0028E7DAF969F3
:1011E000089888470499029800FB016655EA0400B4
:1011F00004D004F04041090002D006E0039898E0D2
:10120000A40044EA9574AD00B61E04F00041080045
:1012100002D16D196441761E159810F0240F03D089
:101220004FF00B095C4803E04FF028096FF07D0098
:101230008246564507DAAAEB06018944B9F1410F07
:1012400001DD4FF0410901200021A9F10102FFF762
:10125000F0F8024628400B462140084301D0012106
:1012600000E00021501E029143F1FF31284021404F
:10127000084301D0012000E000200299834651EA92
:101280000B014FD0002108464FF00000039900F4F5
:10129000400039B100EB80004FF4400100EBD0700A
:1012A00001EA60008015012802DD4FF0FF3000E008
:1012B00013D0401C36D0029860B3BBF1000F0CD1A4
:1012C0004A4601200021FFF7B4F828402140084396
:1012D00001D0012000E00020E0B101204A460021B9
:1012E000FFF7A7F8034640190A4661412D1A8C41C1
:1012F00011D3B9F1400F09DD159810F0240F02D079
:10130000AAF1340603E0AAF1170600E0761C0025D6
:101310004FF0004406E05B1E42F1FF3220EA030575
:1013200021EA0204CAF10100B04206DA1B4903981F
:1013300008430190002000900EE0039AC4F3D321EB
:10134000E80A0A43164940EA44500A433146CDE9C7
:101350000002684603F075FC159810F0240F0BD0BE
:101360001598C00715D13868DDE90012031D3B60F0
:101370000068C0E900120CE002A8694603F058FCBE
:101380001598C00705D13868029A011D39600068B8
:1013900002604046F0E6000002FCFFFF0000F07F24
:1013A0000000F03F2DE9FF4F92461D4685B04FF0FB
:1013B0000041DDE9124BDDE914727F1E01EA4B505A
:1013C000414940F0FF4940EA0108002122F0200095
:1013D0004928049102D04E2828D04CE03BA0012699
:1013E00007C88DE80700A9690698641C88477F1E16
:1013F000014606D41DF8060018B121F020018142F3
:101400000BD0E96906988847032E34D0082E32D0D5
:101410006FF0010009B0BDE8F08F761C032E01D0FB
:10142000082EE0D1601CCAF80000DCE7A969069824
:10143000641C88477F1E2AD420F02000412826D132
:10144000A9690698641C88477F1E20D420F02000DC
:101450004E281CD1A9690698641C88477F1E48F451
:10146000002849F48009CAF8004001D4282806D091
:10147000E969069888475FEACB7012D022E0A96933
:101480000698641C88477F1E01D4002803DAE969A6
:1014900006988847BCE72928F1D1641CCAF80040A7
:1014A000E9E71BF0240F07D028680499031D2B607F
:1014B0000068C0E9001805E02868021D2A6000687D
:1014C000C0F800902046A5E70000F07F494E46494D
:1014D0004E4954590000000010B50446AFF3008097
:1014E0002046BDE81040FEF7A6BE00004FF0013CCC
:1014F00050F8042B51F8043B9A4221D1A2EB0C0383
:10150000934313EACC1317D150F8042B51F8043B42
:101510009A4215D1A2EB0C03934313EACC130BD1DF
:1015200050F8042B51F8043B9A4209D1A2EB0C036A
:10153000934313EACC13DBD04FF00000704700BF99
:10154000D01A01BAB1FA81F101F0180122FA01F0C2
:10155000CB40C1F12001DBB2C0B2C01A2CFA01F3BA
:10156000D11A914311EAC311E6D170473A2800D24B
:10157000303820F02002412A01D3A2F137008842FE
:1015800001D34FF0FF30704701491820ABBEFEE792
:1015900026000200704720F07F4C80EA030023F011
:1015A0007F47ACEB070303F57C5300F0004003F1E9
:1015B000FF032DE980494FEA154B09B44FEA144364
:1015C00025EA0B4E24EA03480FF2042606EB132704
:1015D00049083E785FEA320203FB0667C7F5000759
:1015E00007FB06F64FEA54374FEAD64606F10206E5
:1015F00007FB066CCCF1005C4FEA1C472CEA074C59
:1016000007FB06F40CFB06F504EB15464FEA9616AD
:1016100034BF00204FF000404FEAD13706FB07FCF3
:101620004FEA1C4C0CFB0BF7D21B03FB0CF761EBD6
:1016300007010CFB0EF7B0EB074072EB17420CFBF7
:1016400008F734BFA2EB0742B2EB074261EB174148
:101650004FEA0C444FEA910706FB07FC4FEA1C4C8B
:101660000CFB0BF7B0EBC74072EB573203FB0CF7E8
:1016700034BFA2EBC742B2EBC74261EB57310CFB60
:101680000EF7B0EBC70072EB57720CFB08F734BFD4
:10169000A2EBC702B2EBC70261EB5771039F4FEA9F
:1016A000816141EA921104EBCC044FEAD1374FEA51
:1016B000826206FB07FC42EA90124FEA80604FEA22
:1016C0001C4C0CFB0BF7D21B03FB0CF761EB070167
:1016D0000CFB0EF7B0EB074072EB17420CFB08F760
:1016E00034BFA2EB0742B2EB074261EB17414FEA6E
:1016F0008C554FEA910704EB9C2406FB07FC4FEA4C
:101700001C4C0CFB0BF7B0EBC74072EB573203FBE2
:101710000CF734BFA2EBC742B2EBC74261EB5731C3
:101720000CFB0EF7B0EBC70072EB57720CFB08F71F
:1017300034BFA2EBC702B2EBC70261EB577115EBE6
:101740004C254FEA816141EA92114FEA82624FEAE9
:10175000D13742EA901206FB07FC44F100044FEA3D
:1017600080604FEA1C4C0CFB0BF7D21B03FB0CF701
:1017700061EB07010CFB0EF7B0EB074072EB174271
:101780000CFB08F734BFA2EB0742B2EB074261EB58
:10179000174115EB1C154FEA813141EA92414FEA9E
:1017A000823242EA90424FEA80304FEA0C7644F1AE
:1017B000000448EA03434EEA0B484FF0000EB2EB38
:1017C000080C71EB030724BF624639464EEB0E0E40
:1017D0004FF0000B0018524149414BEB0B0BB2EBA1
:1017E000080C71EB03077BF1000B24BF62463946FE
:1017F0004EEB0E0E4FF0000B0018524149414BEBDF
:101800000B0BB2EB080C71EB03077BF1000B24BF51
:10181000624639464EEB0E0E51EA020718BF46F0FB
:10182000010616EB0E7655F1000254F1000103D5C6
:10183000BDE88901BDE80088BDE88901BDE8004830
:10184000B619524141EB0101A3F1010370478080B9
:101850007F7E7D7C7B7A797877767675747372710A
:1018600071706F6E6E6D6C6C6B6A6A6968686766C2
:1018700066656464636362616160605F5F5E5E5D54
:101880005D5C5C5B5B5A5A595958585757565655C8
:1018900055555454535352525251515050504F4F2A
:1018A0004F4E4E4D4D4D4C4C4C4B4B4B4A4A4A497A
:1018B00049494848484747474746464645454544BD
:1018C0004444444343434342424242414141000075
:1018D00046EA0646A3F570534FEA164646EA4256D4
:1018E0004FEAD22242EA415210B54FEAD121A3F188
:1018F000010300F02FF820F0004000F1020C00F08E
:10190000004701EB00501146BCF5006F40EA0700AC
:1019100000D210BDBAF1000F0AD01CB503B44FF0CD
:1019200004004FF004014FF000000FBCBDE8104070
:101930004FF00001BBF1010FB9BF04484FF0FF3178
:101940000348002140EA070010BD00BFFFFFEF7F02
:101950000000F07F002B9C4630D477002BD01CB5C4
:101960004FEA370703B44FF010004FF01001BAF1FF
:10197000000F06D0BCF1000FDCBF40F0080040F0C3
:1019800008014FF000000FBCBDE810400BF1010B47
:10199000BBF1010F08BF5FEA170722BF12F1010276
:1019A00011F101014FF0004143F1000300F000404C
:1019B00043EA00007047F9D35708D0E746EA0646E5
:1019C00013F1400F4FEA16461FDD13F1200FDFBF62
:1019D00016430A46002120335B42BED0C3F12007E4
:1019E00046EA064602FA07F74FEA164646EA0706AF
:1019F000C3F1200722FA03F201FA07F721FA03F1F3
:101A00004FF0000342EA0702A7E746EA020646EA69
:101A100006464FEA164646EA0106BCBF46EA0646B7
:101A2000360C4FF000034FF000024FF0000194E736
:101A30002DE9804C9A46934670B491E8380007C867
:101A400031EA400C48BF34EA430C03D5FFF7A3FD4D
:101A5000FFF780FFF0BCBDE8008C2DE9804C9A4672
:101A6000934670B491E8380007C831EA400C48BF8B
:101A700034EA430C03D5FFF78EFDFFF729FFF0BCD6
:101A8000BDE8008C2DE9804C9A46934670B491E8ED
:101A9000380007C810F0804F08BF13F0804F03D103
:101AA00000F01AF8FFF756FFF0BCBDE8008C2DE9F6
:101AB000804C9A46934670B491E8380007C810F0FD
:101AC000804F08BF13F0804F03D100F005F8FFF7F7
:101AD000FFFEF0BCBDE8008C20F07F4780EA0300E9
:101AE00023F07F4C07EB0C03A3F57C5300F0004080
:101AF000A3F1FE0392F0000F00F0B38095F0000F09
:101B000000F077802DE901494FEA11404FEA144671
:101B100021EA004800FB06FC24EA064708FB06F61B
:101B200007FB08F800FB07F718EB06484CEB164CD0
:101B30004FEA124B18EB07484FEA15464CEB17409B
:101B400022EA0B4E0BFB06FC25EA06470EFB06F6C7
:101B500007FB0EFE0BFB07F71EEB064E4CEB164C7D
:101B60004FF000061EEB074E4CEB174B18EB0B0823
:101B700040F1000018EB0E0B58EB000840F100009C
:101B80008F1A4FF000013CBFC943661B14BFB5EB71
:101B9000040C00213CBFC943F61B4FEA17444EEA30
:101BA0008E0E27EA04454FEA1C4704FB07622CEA25
:101BB000074C05FB07F70CFB05F604FB0CFC16EBCA
:101BC000074642EB174216EB0C4642EB1C421BEB5E
:101BD000060658EB0202414146EA9E0601D5BDE8E1
:101BE0000189B619524141EB0101A3F10103BDE89E
:101BF00001894FEA14454FEA114724EA054621EAD4
:101C0000074C05FB07F406FB07F70CFB06F105FB89
:101C10000CFC11EB074144EB17444FEA124711EB60
:101C20000C4144EB1C4422EA074C05FB07F206FB7F
:101C300007F70CFB06F605FB0CFC16EB074642EB20
:101C4000174216EB0C4642EB1C456A1854F1000192
:101C500048BF7047B619524141EB0101A3F101039E
:101C6000704795F0000F37D04FEA11424FEA144702
:101C700021EA024624EA074C02FB07F106FB07F7BC
:101C80000CFB06F402FB0CFC14EB074441EB174180
:101C90004FEA154714EB0C4441EB1C4125EA074C75
:101CA00002FB07F506FB07F70CFB06F602FB0CFC34
:101CB00016EB074645EB174516EB0C4645EB1C4269
:101CC000121951F1000148BF7047B619524141EB5A
:101CD0000101A3F1010370474FEA14454FEA114790
:101CE00024EA054621EA074C05FB07F106FB07F746
:101CF0000CFB06F24FF0000605FB0CFC12EB074252
:101D000041EB174112EB0C4251EB1C4148BF7047AD
:101D1000921841EB0101A3F10103704700BFFEE7F8
:101D20001CB50648012100238022CDE9001004A142
:101D3000064803F083FF03F01DFE1CBDA400002035
:101D4000204361725F53746172740000511D00087A
:101D50001CB5044603F0C0FC0D48042100238A0191
:101D6000CDE900100BA10F4803F068FF0E480321D6
:101D700000234FF48072CDE900100CA10E4803F04F
:101D80005DFF002003F078FD03F0D0FC1CBD0000D7
:101D9000A8000020436F6E74726F6C5F5461736BA8
:101DA00000000000BD1D0008AC00002053686F77E4
:101DB0005F5461736B000000713C000806E002F0A4
:101DC000AFFD02F06BFC0A2003F028FDF7E7704737
:101DD00072B600BFFEE770B50446A56D00F082F94B
:101DE000064694F83500022808D08020606500BFC0
:101DF000002084F8340000BF012070BD2068006816
:101E000020F01600216808602068406920F08000FA
:101E100021684861206C08B9A06C28B1206800686E
:101E200020F00800216808602068006820F00100A8
:101E30002168086010E000F055F9801B05280BD9D7
:101E400020206065032084F8350000BF002084F85E
:101E5000340000BF0320D0E72068006800F00100D4
:101E60000028E8D194F85C103F208840A860012049
:101E700084F8350000BF002084F8340000BF00BFA4
:101E8000BBE7014691F83500022803D08020486561
:101E900001207047052081F835000868006820F0AF
:101EA00001000A6810600020F3E7000070B50446E6
:101EB00000F018F906462546681C10B10448007861
:101EC000054400BF00F00EF9801BA842FAD370BD94
:101ED00070000020F8B502460B46002500240020C3
:101EE0000021D6E0012606FA01F51E6806EA05047F
:101EF000AC4274D11E7906F00306012E04D01E797F
:101F000006F00306022E13D190684F000326BE4050
:101F1000B0434F00DE68BE403043906050680126F9
:101F20008E40B0431E79C6F300168E403043506099
:101F30001E7906F00306032E09D0D0684F00032651
:101F4000BE40B0434F009E68BE403043D0601E7913
:101F500006F00306022E13D1CF0802F1200656F830
:101F600027004E07F70E0F26BE40B0434F07FF0E67
:101F70001E69BE403043CF0802F1200646F8270014
:101F800010684F000326BE40B0431E7906F00306DA
:101F90004F00BE40304310605E6806F44036002EAD
:101FA00076D000BF002600963C4E366846F4804648
:101FB0003A4F3E603E46366806F48046009600BFC3
:101FC00000BF374E8F0856F827008E07370F0F26B1
:101FD000BE40B043334EB24202D1002624E057E067
:101FE000314EB24201D101261EE0304EB24201D143
:101FF000022619E02E4EB24201D1032614E02D4EE6
:10200000B24201D104260FE02B4EB24201D1052687
:102010000AE02A4EB24201D1062605E0284EB2421D
:1020200001D1072600E008268F073F0FBE4030434E
:102030001B4E8F0846F82700224E3068A0435E688A
:1020400006F4801606B120431E4E3060361D3068FF
:10205000A0435E6806F4001606B12043194E361DF3
:102060003060184E361F3068A0435E6806F40036B4
:1020700006B12043134E361F3060361F3068A04330
:102080005E6806F4803606B120430E4E083E30608E
:10209000491C1029FFF426AFF8BD00004438024067
:1020A00008380140000002400004024000080240DD
:1020B000000C0240001002400014024000180240D0
:1020C000001C0240083C0140024613690B400BB162
:1020D000012000E0002070470AB1816101E00B049B
:1020E0008361704701480068704700006800002065
:1020F00003480068034909780844014908607047AB
:10210000680000207000002010B50D48006840F401
:1021100000700B4908600846006840F48060086061
:102120000846006840F480700860032000F0E0F882
:10213000012000F007F800F05FF8002010BD00005B
:10214000003C02402DE9F04188B004460027B84623
:1021500000BF002001902348006840F480702149AE
:1021600008600846006800F48070019000BF00BF5E
:1021700002A903A800F092F9069F1FB900F0B6F972
:10218000054602E000F0B2F945001748B5FBF0F053
:10219000A0F1010815481649086040F2E7311448DB
:1021A000C160C0F80480002101618160816100F09C
:1021B000BFFC064696B90E4800F012FD06466EB901
:1021C0002D2000F043F8102C07D2002221462D20AC
:1021D00000F050F80748046000E00126304608B0DF
:1021E000BDE8F0814038024040420F00002000402E
:1021F0008C5200206C00002008B500BF0020009029
:102200001148006840F480400F49086008460068A3
:1022100000F48040009000BF00BF00BF002000908D
:10222000081F006840F08050091F086008460068D9
:1022300000F08050009000BF00BF00220F21901ED0
:1022400000F018F808BD0000443802400146084676
:1022500000280DDB00BF00BF00F01F0301229A40E1
:1022600043099B0003F1E023C3F8002100BF00BF36
:1022700000BF70472DE9F05F80460D4616460027E7
:1022800002F0AAFB074639462A46334601F007000A
:10229000C0F1070ABAF1040F02D94FF0040A01E0B5
:1022A000C0F1070AD14600F1040ABAF1070F02D2C1
:1022B0004FF0000A01E0A0F1030AD4464FF0010AF2
:1022C0000AFA09FAAAF1010A0AEA020A0AFA0CFA57
:1022D0004FF0010B0BFA0CFBABF1010B0BEA030BFC
:1022E0004AEA0B042146404602F07EFBBDE8F09F1F
:1022F00000BF00F00702064B19684FF6FF031940B4
:10230000044B0B4343EA0221014B196000BF7047A5
:102310000CED00E00000FA0570B504460D460CB95E
:10232000012070BD5848006800F00700A84209D29B
:1023300055490D700846006800F00700A84201D01A
:102340000120EEE7207800F0020002281DD120785D
:1023500000F00400042805D14C48006840F4E05027
:102360004A490860207800F00800082805D147484D
:10237000006840F46040454908604448006820F027
:10238000F000A168084341490860207800F001008E
:10239000A8B36068012807D13C4808380068C0F33A
:1023A0004040B8B90120BCE76068022802D06068EC
:1023B000032807D1354808380068C0F3406048B9A1
:1023C0000120AEE7314808380068C0F3400008B982
:1023D0000120A6E72D48006820F00300616808434B
:1023E0002A490860FFF77EFE064609E0FFF77AFEFD
:1023F000801B41F28831884202D9032091E707E02F
:102400002248006800F00C006168B0EB810FEDD14C
:102410001D48006800F00700A84209D91A490D704C
:102420000846006800F00700A84201D0012078E7C4
:10243000207800F00400042807D11448006820F434
:10244000E050E168084311490860207800F0080076
:10245000082808D10D48006820F46040216940EA4E
:10246000C1000A49086000F061F808490968C1F331
:102470000311074A515CC8400649086006480068D5
:10248000FFF760FE00204CE7003C024008380240A5
:102490002C660008740000206C0000200F220260EF
:1024A0000D4A126802F0030242600B4A126802F001
:1024B000F0028260084A126802F4E052C260064AE2
:1024C000126802F46042D2080261044A126802F003
:1024D00007020A607047000008380240003C0240D2
:1024E00001480068704700007400002000B5FFF745
:1024F000F7FF04490968C1F38221034A515CC840CF
:1025000000BD0000083802403C66000800B5FFF737
:10251000E7FF04490968C1F34231034A515CC840EE
:1025200000BD0000083802403C6600082DE9F04775
:10253000002400250026A1462548006800F00C0074
:1025400020B1042805D008283AD105E0DFF88490AE
:1025500039E0DFF8849036E01D48001F006800F085
:102560003F041B48001F006800F4800078B11A483F
:102570001749091F0968C1F38811A0FB01700146C2
:10258000224600233846FDF7DDFE05460EE01148E1
:102590000F49091F0968C1F38811A0FB01700146AA
:1025A000224600233846FDF7CDFE05460848001FA9
:1025B0000068C0F30140401C4600B5FBF6F902E09C
:1025C000DFF8109000BF00BF4846BDE8F08700006C
:1025D000083802400024F40000127A00F8B50446DE
:1025E0000CB90120F8BD207800F00100002874D05B
:1025F000F948006800F00C0004280DD0F648006887
:1026000000F00C00082813D1F348001F006800F404
:102610008000B0F5800F0BD1EF4808380068C0F398
:102620004040002859D06068002856D10120D9E7E1
:1026300000BF6068B0F5803F08D1E74808380068FF
:1026400040F48030E449083908601EE06068B0F565
:10265000A02F0DD1E0480838006840F48020DE4902
:10266000083908600846006840F4803008600CE0D3
:10267000D9480838006820F48030D7490839086004
:102680000846006820F48020086000BF606890B1B0
:10269000FFF728FD054606E0FFF724FD401B6428F0
:1026A00001D903209EE7CC4808380068C0F34040B9
:1026B0000028F1D011E0FFF715FD054606E0FFF711
:1026C00011FD401B642801D903208BE7C24808385C
:1026D0000068C0F340400028F1D1207800F00200EB
:1026E00002285FD1BC48006800F00C0058B1BA481D
:1026F000006800F00C0008281CD1B748001F0068D3
:1027000000F48000B0B9B44808380068C0F3400055
:1027100020B1E068012801D0012063E7AE48083805
:10272000006820F0F800216940EAC100AA49083990
:10273000086037E0E06800B30120A8490860FFF7AF
:10274000D1FC054606E0FFF7CDFC401B022801D96D
:10275000032047E7A04808380068C0F3400000287D
:10276000F1D09D480838006820F0F800216940EA5F
:10277000C10099490839086014E0002097490860B1
:10278000FFF7B0FC054606E0FFF7ACFC401B022853
:1027900001D9032026E7904808380068C0F34000BC
:1027A0000028F1D1207800F0080008282CD16069B9
:1027B000A8B101208A490860FFF794FC054606E0AD
:1027C000FFF790FC401B022801D903200AE782484A
:1027D0006C300068C0F340000028F1D014E0002005
:1027E0007F490860FFF77EFC054606E0FFF77AFCAC
:1027F000401B022801D90320F4E677486C300068BA
:10280000C0F340000028F1D1207800F00400042833
:1028100070D1002770483830006800F0805090B9BF
:1028200000BF002000906C483830006840F08050B5
:102830006949383108600846006800F0805000900F
:1028400000BF00BF01276748006800F48070B0B97E
:102850006448006840F4807062490860FFF742FCF9
:10286000054606E0FFF73EFC401B022801D9032085
:10287000B8E65C48006800F480700028F2D000BF21
:10288000A068012808D154486830006840F0010071
:102890005149683108601DE0A06805280DD14E48F7
:1028A0006830006840F004004B4968310860084611
:1028B000006840F0010008600CE04748683000689C
:1028C00020F001004449683108600846006820F0A3
:1028D0000400086000BFA068A8B1FFF703FC05462C
:1028E00009E0FFF7FFFB401B41F28831884202D923
:1028F000032077E626E0384868300068C0F34000DF
:102900000028EED013E0FFF7EDFB054608E0FFF7E7
:10291000E9FB401B41F28831884201D9032061E67E
:102920002D4868300068C0F340000028EFD1012F27
:1029300007D129483830006820F0805026493831C6
:10294000086000BFA069002845D02348006800F057
:102950000C0008285DD0A069022845D100201F493D
:102960000866FFF7BFFB054606E0FFF7BBFB401B11
:10297000022801D9032035E6174808380068C0F35B
:1029800040600028F1D1D4E907010843616A40EAB8
:1029900081110122A06AC2EB500041EA00412C20C3
:1029A000005D41EA00600C49091F086001200B49E5
:1029B0000866FFF797FB054606E0FFF793FB401B11
:1029C000022801D903200DE6034808380068C0F347
:1029D00040600028F1D049E008380240000047423A
:1029E000800E474200700040002021490866FFF732
:1029F00079FB054606E0FFF775FB401B022801D96D
:102A00000320EFE51B480068C0F340600028F2D1C6
:102A10002CE0A069012800D1E4E51648001D0668F5
:102A2000A069012820D006F48001E06981421BD111
:102A300006F03F01206A814216D147F6C07030404F
:102A4000616AB0EB811F0FD106F440310122A06A08
:102A5000C2EB5000B1EB004F06D106F070612C20A4
:102A6000005DB1EB006F01D00120BBE50020B9E5AE
:102A700000004742003802407047704730B50246B8
:102A80000B4600BF92F83C00012801D1022030BD66
:102A9000012082F83C0000BF022082F83D0010684F
:102AA00044681068816824F0700418680443106852
:102AB0004460184D1068A8421BD01068B0F1804FD8
:102AC00017D0154D1068A84213D0144D1068A842B5
:102AD0000FD0134D1068A8420BD0124D1068A842B9
:102AE00007D0114D1068A84203D0104D1068A842BD
:102AF00005D121F0800158680143106881600120F0
:102B000082F83D0000BF002082F83C0000BF00BFFB
:102B1000BDE7000000000140000400400008004044
:102B2000000C00400004014000400140001800403B
:102B300010B504460CB9012010BD94F83D0028B929
:102B4000002084F83C00204600F026F8022084F89B
:102B50003D00211D206801F059F9012084F846004C
:102B600000BF84F83E0001213F200155402001555F
:102B70004120015500BF00BF012084F842004320DE
:102B80000155442001554520015500BF012084F81E
:102B90003D000020D0E7000038B504460E4920680B
:102BA000884217D100BF002000900C48006840F018
:102BB00002000A4908600846006800F00200009020
:102BC00000BF00BF002211461D20FFF753FB1D2050
:102BD000FFF73CFB38BD00000004004040380240D5
:102BE000014691F83D00012801D0012070470220E4
:102BF00081F83D000868C06840F001000B68D860AB
:102C00001A4B086898421BD00868B0F1804F17D063
:102C1000174B0868984213D0164B086898420FD09B
:102C2000154B086898420BD0144B0868984207D09F
:102C3000134B0868984203D0124B086898420CD195
:102C40000868806800F00702062A0CD0086800684F
:102C500040F001000B68186005E00868006840F06B
:102C600001000B6818600020C0E700000000014070
:102C70000004004000080040000C00400004014037
:102C800000400140001800402DE9F04104460D4687
:102C9000002700BF94F83C00012802D10220BDE8C3
:102CA000F081012084F83C0000BF022084F83D0040
:102CB0002068866826F0770626F47F4620688660BE
:102CC0002868502833D00CDC202850D004DC0028A1
:102CD0004BD0102851D149E0302849D040284CD160
:102CE00039E060282DD0702807D0B0F5805F03D080
:102CF000B0F5005F41D10DE041E0D5E902136A680B
:102D0000206801F004F92068866846F0770620689C
:102D1000866034E0D5E902136A68206801F0F7F8AC
:102D20002068806840F480402168886027E0EA6875
:102D30006968206801F0DCF95021206801F0F2F8A0
:102D40001DE0EA686968206801F0E5F96021206803
:102D500001F0E8F813E0EA686968206801F0C8F952
:102D60004021206801F0DEF809E000BF00BF00BF8D
:102D70002968206801F0D6F801E0012700BF00BFF4
:102D8000012084F83D0000BF002084F83C0000BF13
:102D9000384684E7704770B504462068C5682068E7
:102DA000066906F00200022819D105F00200022887
:102DB00015D1401F216808610120207720688069B3
:102DC00000F0030018B12046FFF7E4FF05E02046BD
:102DD00000F0CAF8204600F07EF90020207706F0C7
:102DE0000400042819D105F00400042815D1C043BB
:102DF00021680861022020772068806900F4407013
:102E000018B12046FFF7C6FF05E0204600F0ACF8F9
:102E1000204600F060F90020207706F0080008281E
:102E200019D105F00800082815D1C04321680861B0
:102E3000042020772068C06900F0030018B1204604
:102E4000FFF7A8FF05E0204600F08EF8204600F0CE
:102E500042F90020207706F01000102819D105F063
:102E60001000102815D1C043216808610820207780
:102E70002068C06900F4407018B12046FFF78AFF4F
:102E800005E0204600F070F8204600F024F900200C
:102E9000207706F0010048B105F0010030B16FF075
:102EA000010021680861204600F094F906F08000D6
:102EB000802809D105F08000802805D1C043216811
:102EC00008612046FFF7D8FD06F04000402809D1F0
:102ED00005F04000402805D1C04321680861204624
:102EE00000F0B6F906F02000202809D105F02000F6
:102EF000202805D1C043216808612046FFF7BDFDA9
:102F000070BD000010B586B00446142101A8FDF77D
:102F100062FB1249206888421DD100BF002000904A
:102F20000F48006840F004000D490860084600683A
:102F300000F00400009000BF00BF4FF4407001900B
:102F4000022002900020039004900220059001A925
:102F50000448FEF7BFFF06B010BD000000040040AB
:102F6000303802400008024070472DE9F041044625
:102F70000D461646002700BF94F83C00012802D1F8
:102F80000220BDE8F081012084F83C0000BF36B18A
:102F9000042E1BD0082E31D00C2E5ED145E02946E0
:102FA000206800F0C9FF2068806940F008002168AF
:102FB00088612068806920F00400216888612068A9
:102FC0008069296908432168886148E029462068AA
:102FD00000F0EAFF2068806940F4006021688861A1
:102FE0002068806920F48060216888612068806999
:102FF000296940EA01202168886130E0294620687B
:1030000001F010F82068C06940F008002168C8612C
:103010002068C06920F004002168C8612068C06988
:10302000296908432168C86119E02946206801F030
:1030300035F82068C06940F400602168C8612068E4
:10304000C06920F480602168C8612068C06929696E
:1030500040EA01202168C86101E0012700BF00BFEC
:1030600000BF002084F83C0000BF384689E710B557
:1030700004460CB9012010BD94F83D0028B9002089
:1030800084F83C00204600F025F8022084F83D003A
:10309000211D206800F0BAFE012084F8460000BF20
:1030A00084F83E0001213F20015540200155412078
:1030B000015500BF00BF012084F8420043200155A4
:1030C000442001554520015500BF012084F83D00F2
:1030D0000020D0E77047704770B504460D460026C3
:1030E00035B1042D0BD0082D10D00C2D1CD114E0BF
:1030F0002068C06820F002002168C86016E02068DF
:10310000C06820F004002168C8600FE02068C06833
:1031100020F008002168C86008E02068C06820F03E
:1031200010002168C86001E0012600BF00BF002E2A
:103130004AD100222946206800F0D8FE23492068A1
:10314000884203D022492068884201D1012000E052
:10315000002090B100BF2068006A41F211110840C0
:1031600050B92068006A8910084028B92068406C6E
:1031700020F400402168486400BF00BF2068006A56
:1031800041F21111084050B92068006A89100840C6
:1031900028B92068006820F001002168086000BF9D
:1031A0001DB9012084F83E000EE0042D03D1012159
:1031B0003F20015508E0082D03D101214020015591
:1031C00002E0012141200155304670BD0000014060
:1031D0000004014010B5044618492068884201D116
:1031E000FEF786FF16492068884225D11548007FE2
:1031F00001280ED11348808A401E00B211498882EE
:103200000846808A28B90020087708210E48FFF771
:1032100063FF0E48007F01280ED10C48808A401EB3
:1032200000B20A4988820846808A28B900200877B7
:103230000C210548FFF750FF10BD000000200040A2
:1032400000040040F0520020B45100201053002030
:103250007047704710B504460A492068884210D16B
:103260000120094908700F2208490948FDF712F9A1
:103270001E210648FDF78DF91E220449054800F07D
:10328000C9FA10BD00100140A000002030530020FA
:103290004E530020FC51002010B5044600BF00BF73
:1032A00021680C3151E8001F21F4907021680C3125
:1032B00041E80002002AF3D100BF00BF00BF21682F
:1032C000143151E8001F21F001002168143141E858
:1032D0000002002AF3D100BF206B01280ED100BFED
:1032E00000BF21680C3151E8001F21F01000216857
:1032F0000C3141E80002002AF3D100BF2068406988
:1033000000F04000402826D100BF00BF21681431E2
:1033100051E8001F21F040002168143141E800020B
:10332000002AF3D100BFE06B50B11148E16B086592
:10333000E06BFEF7A6FDC0B1E06B016D884714E0BD
:103340000020E085202084F84200002020632046F1
:10335000FFF780FF09E00020E085202084F842008C
:10336000002020632046FFF775FF002010BD0000FD
:1033700051410008704700002DE9F84F04462068CD
:1033800005682068C668206847694FF00009CA468A
:1033900005F00F09B9F1000F0AD105F0200038B18E
:1033A00006F0200020B1204600F026FFBDE8F88F8F
:1033B000B9F1000F7CD007F0010018B906F4907045
:1033C000002875D005F0010030B106F4807018B106
:1033D000606C40F00100606405F0040030B107F05B
:1033E000010018B1606C40F00200606405F002005A
:1033F00030B107F0010018B1606C40F00400606467
:1034000005F0080048B106F0200010B907F00100EF
:1034100018B1606C40F008006064606C002846D011
:1034200005F0200028B106F0200010B1204600F081
:10343000E3FE20684069C0F3801A606C00F0080069
:1034400010B9BAF1000F2DD0204600F08FFE206891
:10345000406900F04000402820D100BF00BF216833
:10346000143151E8001F21F040002168143141E877
:103470000002002AF3D100BFE06B50B17F48E16B3E
:103480000865E06BFEF7FDFC88B1E06B016D8847D5
:103490000DE02046FFF76EFF09E009E02046FFF748
:1034A00069FF04E02046FFF765FF002060647DE7C8
:1034B000206B012878D105F01000002874D006F0A8
:1034C00010000028FAD000BF00200090206800689B
:1034D000009020684068009000BF00BF20684069ED
:1034E00000F04000402870D1E06B006840681FFA8F
:1034F00080F8B8F1000F58D0A08D404555DDA4F8F4
:103500002E80E06BC069B0F5807F43D000BF00BF64
:1035100021680C3151E8001F21F4807021680C31C2
:1035200041E80002002AF3D100BF00BF00BF2168BC
:10353000143151E8001F21F001002168143141E8E5
:103540000002002AF3D100BF00BF00BF2168143180
:1035500051E8001F21F040002168143141E80002C9
:10356000002AF3D100BF202084F84200002020630D
:1035700000BF00BF21680C3151E8001F21F010008E
:1035800021680C3141E80002002AF3D100BFE06B52
:10359000FEF721FC02206063A08DE28D801A81B2CB
:1035A0002046FFF756FE0EE052E0A08D40450AD1BE
:1035B000E06BC069B0F5807F05D102206063A18D0A
:1035C0002046FFF746FEF1E6FFE7A08DE18D401AA9
:1035D0001FFA80F8E08DD0B3B8F1000F37D000BFEC
:1035E00000BF21680C3151E8001F21F49070216860
:1035F0000C3141E80002002AF3D100BF00BF00BF38
:103600002168143151E8001F21F0010021681431B4
:1036100041E80002002AF3D100BF202084F84200D4
:103620000020206300BF00BF21680C3151E8001F5B
:1036300021F0100021680C3141E80002002AF3D18A
:1036400000BF0220606341462046FFF702FEADE660
:1036500005F0800030B106F0800018B1204600F07F
:103660007FFFA3E605F0400030B106F0400018B13E
:10367000204600F0B1FD99E600BF97E63F41000803
:1036800010B504460CB9012010BDA06900B100E0DE
:1036900000BF94F8410028B9002084F8400020467B
:1036A00000F02AF8242084F841002068C06820F443
:1036B00000502168C860204600F01CFE20680069A8
:1036C00020F49040216808612068406920F02A00B9
:1036D000216848612068C06840F400502168C860D3
:1036E00000206064202084F8410084F8420000201B
:1036F000606300BFC8E7000010B586B0044614211F
:1037000001A8FCF768FF3F492068884238D100BF14
:10371000002000903C48006840F010003A490860E2
:103720000846006800F01000009000BF00BF00BF16
:103730000020009034481438006840F002003249FC
:10374000143908600846006800F00200009000BFCD
:1037500000BFC020019002200290002003900320AF
:1037600004900720059001A92848FEF7B3FB00222A
:1037700003212520FEF77EFD2520FEF767FD3EE0B4
:103780002349206888423AD100BF002000901E489B
:10379000001F006840F480201B49091F086008468C
:1037A000006800F48020009000BF00BF00BF002030
:1037B000009015481438006840F00200124914398E
:1037C00008600846006800F00200009000BF00BFDB
:1037D0004FF44060019002200290002003900320EB
:1037E00004900720059001A90848FEF773FB00220A
:1037F00002212720FEF73EFD2720FEF727FD06B019
:1038000010BD000000100140443802400004024096
:103810000048004070B504460D46164694F8420034
:1038200020280BD105B10EB9012070BD0020206306
:1038300032462946204600F073FEF6E70220F4E700
:1038400070472DE9F84F04460E46174699464FF04B
:10385000000A94F84100202850D106B117B9012080
:10386000BDE8F88F00206064212084F84100FEF755
:1038700039FC8246A784E784A068B0F5805F04D154
:10388000206910B90025B04602E035464FF0000827
:103890001EE05346002280212046CDF8009000F023
:1038A0008FFE20B1202084F841000320D8E745B9DD
:1038B000B8F80000C0F308002168486008F1020869
:1038C00003E02878216848606D1CE08C401EE0848D
:1038D000E08C0028DDD15346002240212046CDF85F
:1038E000009000F06DFE20B1202084F841000320FC
:1038F000B6E7202084F841000020B1E70220AFE7BE
:10390000704700BFFEE7000000B587B0142102A891
:10391000FCF761FE00BF002001904E48006840F0B7
:1039200080004C4908600846006800F08000019063
:1039300000BF00BF00BF002001900846006840F0B3
:10394000010008600846006800F00100019000BF17
:1039500000BF00BF002001900846006840F0100042
:1039600008600846006800F01000019000BF00BF2A
:1039700000BF002001900846006840F00200086087
:103980000846006800F00200019000BF00BF00BFC1
:10399000002001900846006840F0080008600846D2
:1039A000006800F00800019000BF00BF00BF0020C9
:1039B00001900846006840F004000860084600686E
:1039C00000F00400019000BF00BF00221521224832
:1039D000FEF782FB00224FF420612048FEF77CFBBB
:1039E0000120029003900490059002A91A48FEF766
:1039F00071FA14200290012003900220049001200B
:103A0000059002A91448FEF765FA082002900020EC
:103A100003900120049002A90F48FEF75BFA4FF4CF
:103A20002060029001200390022004900120059064
:103A300002A90A48FEF74EFA40F601000290002063
:103A400003900220049002A90548FEF743FA07B04C
:103A500000BD00003038024000000240001002406B
:103A6000000C024000B58DB0002009900A900B9028
:103A70000C90079008901C216846FCF7ACFD244888
:103A80002449086040F247304860002121488160A5
:103A900040F2E731C160002101618161FFF748F820
:103AA00008B1FEF795F94FF48050099009A919481B
:103AB000FFF7EAF808B1FEF78BF91648FFF7D7FAD7
:103AC00008B1FEF785F900200790089007A9114872
:103AD000FEF7D4FF08B1FEF77BF9602000900020CC
:103AE000019002900490082269460A48FFF73DFAC7
:103AF00008B1FEF76DF90C2269460648FFF735FA62
:103B000008B1FEF765F90348FFF7FCF90DB000BDF9
:103B100000040040B451002010B50B480B49086068
:103B20004FF4E1304860002108488160C1600161C4
:103B30000C21416100218161C161FFF7A1FD08B144
:103B4000FEF746F910BD000000100140FC510020B6
:103B500010B50B480B4908604FF4E1304860002174
:103B600008488160C16001610C21416100218161CF
:103B7000C161FFF785FD08B1FEF72AF910BD00000D
:103B8000004800404452002000BFFEE700BFFEE7AF
:103B90002DE9FF4106460D4617461C4618A30FCBDC
:103BA0008DE80F008DF80060002C03DA01208DF8FD
:103BB000020002E000208DF8020028128DF80300B8
:103BC000E8B28DF804008DF80570201E01DB014677
:103BD00000E041420CB2200E8DF80600200C8DF85A
:103BE0000700200A8DF80800E0B28DF80900642370
:103BF0000D2269460648FFF724FEBDE8FF8100005C
:103C000000FD000000000000000000006B0000004C
:103C1000445200207CB505460C46164611A103C946
:103C2000CDE900018DF80050002C03DA01208DF859
:103C3000020002E000208DF80200201E01DB014698
:103C400000E041420CB2200A8DF80300E0B28DF88A
:103C500004008DF805606423082269460348FFF7D5
:103C6000F0FD7CBD00F600000000006B4452002017
:103C70001EE001F03FF80F480078012813D10E48EC
:103C80000078012802D101F07BFC0CE00A480078A2
:103C9000022802D101F096FC05E0074800780328CD
:103CA00001D101F0CDFC01F07DF8142001F0B6FD4A
:103CB000DFE70000B9000020B80000201CB5044672
:103CC00006A103C9CDE900018DF800406423052257
:103CD00069460448FFF7B5FD1CBD0000009A0000CE
:103CE0006B000000445200201CB5044606A103C925
:103CF000CDE900018DF8004064230522694604489F
:103D0000FFF79FFD1CBD0000009388016B000000C1
:103D10004452002010B501F0C5FF012801D001F088
:103D200073FF10BD00B593B0302107A8FCF753FC1A
:103D3000142102A8FCF74FFC00BF0020019024488A
:103D4000006840F08050224908600846006800F092
:103D50008050019000BF00BF00BF002001901D48AF
:103D6000006840F480401B4908600846006800F481
:103D70008040019000BF00BF012007900004089020
:103D800002200D9041050E9104210F91A821109160
:103D9000022111910421129107A8FEF71FFC08B11E
:103DA000FEF716F80F2002900220039000200490E6
:103DB0004FF4A05005904FF480500690052102A8C2
:103DC000FEF7AAFA08B1FEF703F813B000BD000031
:103DD00040380240007000400348006840F4700022
:103DE000014908607047000088ED00E010B5024806
:103DF000FEF7D1FF10BD0000B451002010B50248FD
:103E0000FEF7C9FF10BD00008C52002010B50268FB
:103E10002B4B98420ED0B0F1804F0BD0294B9842DB
:103E200008D0294B984205D0284B984202D0284B05
:103E3000984203D122F070024B681A43204B9842FB
:103E400020D0B0F1804F1DD01E4B98421AD01E4B8F
:103E5000984217D01D4B984214D01D4B984211D058
:103E60001C4B98420ED01C4B98420BD01B4B9842D7
:103E700008D01B4B984205D01A4B984202D01A4BDF
:103E8000984203D122F44072CB681A4322F0800397
:103E90004C6943EA04028B68C3620B688362084B77
:103EA000984202D00A4B984201D10B690363036820
:103EB00043F00403036001234361026010BD00006E
:103EC000000001400004004000080040000C0040D9
:103ED000000401400040014000440140004801400E
:103EE00000180040001C00400020004030B501F0E8
:103EF0001F05012404FA05F3046A9C430462046A62
:103F000001F01F0502FA05F52C43046230BD30B5FF
:103F10000C46816821F47F4142EA03252543294369
:103F2000816030BD0A46816821F0700142F00703CC
:103F3000194381607047000030B5026A056A25F0B8
:103F4000010505624368846924F0700424F00304C9
:103F50000D682C4322F002028D682A43104DA842BE
:103F600000D103E00F4DA84206D100BF22F00802A5
:103F7000CD682A4322F00402094DA84202D0094D1F
:103F8000A84207D123F4807323F400734D692B43B7
:103F90008D692B43436084614D684563026230BD87
:103FA000000001400004014030B5026A056A25F0B6
:103FB000100505624368846924F4E04424F44074E5
:103FC0000D6844EA052422F020028D6842EA0512B9
:103FD000124DA84200D103E0114DA84207D100BF05
:103FE00022F08002CD6842EA051222F040020B4D19
:103FF000A84202D00A4DA84209D123F4806323F4D9
:1040000000634D6943EA85038D6943EA8503436094
:1040100084614D688563026230BD0000000001408C
:104020000004014030B5026A056A25F48075056216
:104030004368C46924F0700424F003040D682C4321
:1040400022F400728D6842EA0522124DA84200D186
:1040500003E0114DA84207D100BF22F40062CD68F1
:1040600042EA052222F480620A4DA84202D00A4D9B
:10407000A84209D123F4805323F400534D6943EA45
:1040800005138D6943EA05134360C4614D68C56338
:10409000026230BD000001400004014030B5036AF7
:1040A000056A25F4805505624468C26922F4E0423D
:1040B00022F440720D6842EA052223F400538D6811
:1040C00043EA0533084DA84202D0084DA84204D166
:1040D00024F480444D6944EA85144460C2614D680B
:1040E0000564036230BD000000000140000401408F
:1040F00030B50B461446026A056A25F001050562D3
:10410000816921F0F00141EA041122F00A021A4308
:104110008161026230BD30B50B461446026A056A01
:1041200025F010050562816921F4704141EA0431EE
:1041300022F0A00242EA03128161026230BD70B532
:104140000446A56B0020E8852846FFF713F970BDEB
:1041500070B50546AC6B0020E085202084F8420055
:10416000002020632046FFF775F870BD00BF00BF38
:1041700002680C3252E8002F22F4907102680C326F
:1041800042E80013002BF3D100BF00BF00BF02685C
:10419000143252E8002F22F001010268143242E882
:1041A0000013002BF3D100BF016B01290ED100BF1A
:1041B00000BF02680C3252E8002F22F010010268A2
:1041C0000C3242E80013002BF3D100BF202180F80D
:1041D000421000210163704710B504462068C06892
:1041E00020F040002168C860202084F8410020466B
:1041F000FFF786FB002010BDF8B504460025002619
:1042000094F84200222873D1A068B0F5805F0BD1EA
:10421000206948B9A66A20684068C0F30800308069
:10422000A06A801CA06214E0A56AA068B0F5805F57
:1042300003D0A06828B9206918B9206840682870A0
:1042400004E02068406800F07F002870A06A401CED
:10425000A062E08D401E80B2E085002846D1206833
:10426000C06820F020002168C8602068C06820F481
:1042700080702168C8602068406920F001002168D2
:104280004861202084F8420000206063206B0128F0
:1042900026D10020206300BF00BF21680C3151E807
:1042A000001F21F0100021680C3141E80002002AB3
:1042B000F3D100BF2068006800F0100010280AD178
:1042C00000BF0020009020680068009020684068CF
:1042D000009000BF00BFA18D2046FEF7BAFF02E0AC
:1042E0002046FFF7ADFA0020F8BD01E00020FBE713
:1042F0000220F9E72DE9F84F04462068006920F410
:104300004050E1680843216808612169A0680843BA
:1043100061690843E169084300902068C06849F278
:104320000C618843009908432168C860206840698F
:1043300020F44070A16908432168486176492068EB
:10434000884203D075492068884203D1FEF7DEF821
:10435000814602E0FEF7CAF88146E069B0F5004FF9
:104360006CD102206168A0FB015003461920A9FB13
:10437000007001462A463846FBF7E4FF6421B0FB93
:10438000F1F04FEA001A02206168A0FB01510B46D0
:104390001920A9FB00712A463846FBF7D3FF834654
:1043A00002206168A0FB015003461920A9FB00719F
:1043B0002A463846FBF7C6FF6421B0FBF1F000EB5C
:1043C000C00101EB0010ABEB8000322101EBC0001B
:1043D0006421B0FBF1F000F0F8000AEB400A022083
:1043E0006168A0FB015003461920A9FB007001463B
:1043F0002A463846FBF7A6FF834602206168A0FBE9
:10440000015003461920A9FB00712A463846FBF7E4
:1044100099FF6421B0FBF1F000EBC00101EB00104B
:10442000ABEB8000322101EBC0006421B0FBF1F066
:1044300000F007005044216888606AE00420616849
:10444000A0FB015003461920A9FB007001462A4633
:104450003846FBF777FF824604206168A0FB0150D5
:1044600003461920A9FB007001462A463846FBF78F
:1044700069FF6421B0FBF1F000EBC00101EB00101B
:10448000AAEB8000322101EB00106421B0FBF1F0B7
:1044900000F0F00A04206168A0FB017003461920B7
:1044A000A9FB00513A462846FBF74CFF6421B0FBBC
:1044B000F1F00AEB001A04206168A0FB01510B46E1
:1044C0001920A9FB00712A463846FBF73BFF8346BB
:1044D00004206168A0FB015003461920A9FB00706D
:1044E00001462A463846FBF72DFF6421B0FBF1F068
:1044F00000EBC00101EB0010ABEB8000322101EBBF
:1045000000106421B0FBF1F000F00F00504421686E
:104510008860BDE8F88F00000010014000140140E1
:1045200010B5034699629A85DA85002058642220E6
:1045300083F84200186928B11868C06840F4807098
:104540001C68E0601868406940F001001C68606108
:104550001868C06840F020001C68E060002010BDB2
:10456000014691F84100212828D18868B0F5805F84
:104570000BD1086948B90A6A1088C0F308000B68B3
:104580005860086A801C086205E00B6A581C0862C3
:1045900018780B685860C88C401E80B2C88458B91F
:1045A0000868C06820F080000B68D8600868C068A0
:1045B00040F040000B68D860002070470220FCE704
:1045C0002DE9F84304460D4617469846089E31E00B
:1045D000701C70B3FDF786FDA0EB0800B04200D858
:1045E00016B90320BDE8F8832068C06800F0040015
:1045F000F8B1802D1ED0402D1CD020680068C0F37B
:10460000C000B0B100BF002000902068006800909A
:1046100020684068009000BF00BF2046FFF7A6FD5D
:104620000820606400BF002084F8400000BF012023
:10463000D8E7FFE7206800682840A84201D10120A0
:1046400000E00020B842C3D00020CBE708B50D48F9
:10465000FEF792FE0B480068006800F0100010287A
:104660000FD100BF0020009006480068006800904D
:10467000044800684068009000BF00BF0148FEF792
:104680000BFE08BDFC51002010B50248FEF774FE79
:1046900010BD00004452002000BFFEE710B52DED14
:1046A000048B9948007801287ED1974890ED060A3E
:1046B00010EE101A084601F0BDFE41EC190BB0EEE9
:1046C000490AF0EE690A00F01FFAB0EE408AF0EEF7
:1046D000608A9FED8E0B53EC102B51EC180B01F000
:1046E00039FD0FD80023642232210120FFF750FA50
:1046F0008548C078032866DA8348C078401C824920
:10470000C87060E0804890ED060A10EE101A084666
:1047100001F090FE41EC190BB0EE490AF0EE690A87
:1047200000F0F2F9B0EE408AF0EE608A9FED790B6E
:1047300053EC102B51EC180B01F046FE11D27248CD
:10474000D0ED060AB0EE600A00F010FFC0EB0010DA
:10475000400004B2234664221E210120FFF718FA0C
:104760002EE0694890ED060A10EE101A084601F096
:1047700061FE41EC190BB0EE490AF0EE690A00F057
:10478000C3F9B0EE408AF0EE608A9FED620B53EC05
:10479000102B51EC180B01F0DDFC11D85A48D0ED6C
:1047A000060AB0EE600A00E0ABE000F0DFFE00EBCE
:1047B000800004B22346642205210120FFF7E8F9B6
:1047C00000205149C8700220FDF770FB4E4890ED63
:1047D000050A10EE101A084601F02CFE41EC190BE8
:1047E000B0EE490AF0EE690A00F08EF9B0EE408AA8
:1047F000F0EE608A9FED450B53EC102B51EC180B3B
:1048000001F0A8FC0FD80023642211460220FFF714
:10481000BFF93D488078032864DA3B488078401C23
:10482000394988705EE0384890ED050A10EE101A9C
:10483000084601F0FFFD41EC190BB0EE490AF0EE1D
:10484000690A00F061F9B0EE408AF0EE608A9FEDEF
:10485000310B53EC102B51EC180B01F0B5FD11D2BC
:104860002948D0ED050AB0EE600A00F07FFEC0EBEB
:104870000010400004B2234664221E210220FFF7EC
:1048800087F92CE0204890ED050A10EE101A084632
:1048900001F0D0FD41EC190BB0EE490AF0EE690AC7
:1048A00000F032F9B0EE408AF0EE608A9FED190B0D
:1048B00053EC102B51EC180B01F04CFC0FD81248A4
:1048C000D0ED050AB0EE600A00F050FE00EB80006B
:1048D00004B22346642205210220FFF759F9002083
:1048E0000949C8700848C07801280ADB0648807862
:1048F000012806DB00200449C870887001200749A0
:104900000870BDEC048B10BDD452002000000000E4
:10491000000010400000000000003E409C0000200D
:1049200008B525480078012845D1002022490870A3
:1049300022484078012824D121480078582820D1E5
:104940001F48007A59281CD11C4B10331A1F1DA177
:104950001B48FBF781FD194890ED030AD0ED010AD1
:1049600030EE600A80ED050A90ED040AB1EE400ACF
:10497000D0ED020A30EE200A80ED060A01200F4930
:1049800008700F480078662815D10D4840786928CE
:1049900011D10FA000680090642200210220FFF7CF
:1049A00039F90A20FDF782FA642302226946094890
:1049B000FEF747FF00BF08BDA0000020D452002032
:1049C0004E530020582536662C59253666000000C7
:1049D0006F6B0000FC51002002480068C0F3022009
:1049E000704700000CED00E010B5002804DB0A075A
:1049F000130E054A135406E00A07140E034A00F08A
:104A00000F031B1FD45410BD00E400E018ED00E0BC
:104A100030B52DED048B81B0B0EE408AF0EE608AA7
:104A20006A4651EC180B00F01FF900989FED329B7D
:104A30007E300090002821DC53EC192B51EC180B30
:104A400001F04CFB1AD0002140F608004FF00000A6
:104A5000044651EC180B01F0FBFA08EE100A40F680
:104A6000080004EA00014FF00000B5EEC08AF1EE44
:104A700010FA04BF0220FBF7DDFD2DE00098FF28AF
:104A800030DB002108464FF0000000F4400553ECF5
:104A9000192B51EC180B01F097FC8CBF002401245A
:104AA0000220FBF7C7FD9FED168A4DB1002C0CBF0D
:104AB0004FF400004FF48000A84218BF9FED118A08
:104AC000042108464FF00000002C01BFB1EE480A57
:104AD00001B0BDEC048B30BDB0EE480A01B0BDECB6
:104AE000048B30BD51EC180B01F0B2FA01B000EEAE
:104AF000100ABDEC048B30BD000000000000000077
:104B00000000807FFFFF7F7F2DED020B019820F0DA
:104B1000004001909DED000B02B0704700000000C6
:104B200030B540F2FF742DED048BF0EE608A18EE84
:104B3000901A85B0B0EE408A9FED2B9B05468DED17
:104B4000008B34EA115147D053EC192B51EC180B60
:104B500001F0C4FA40D02A4651EC180B01F01AFDBE
:104B600041EC180B18EE900A8DED008B34EA1050D2
:104B70001CD053EC192B51EC180B01F0AFFA2BD1D0
:104B80000220FBF757FD00F043F810EE901A18EEE4
:104B9000900A8DED020B8DED008B61F31E000390EA
:104BA0009DED020B05B0BDEC048B30BD0220FBF780
:104BB00041FD00F01DF810EE901A18EE900A8DEDF0
:104BC000020B8DED008B61F31E0003909DED020B37
:104BD00005B0BDEC048B30BD05B0B0EE480AF0EE78
:104BE000680ABDEC048B30BD00000000000000002E
:104BF0009FED050B10B553EC102B51EC100B01F091
:104C0000E5FA41EC100B10BD000000000000007040
:104C10009FED050B10B553EC102B51EC100B01F070
:104C2000D5FA41EC100B10BD000000000000001090
:104C300010B5044691ED000BFFF7EAFE84ED000A83
:104C400010BD10B5044690ED000B0846FFF768FF55
:104C500084ED000B10BD30380A2801D201207047C6
:104C6000002070470000000010B582B01446CDE966
:104C700000010023009A2360194B21F00040984264
:104C80002ADA024328D0B0F5801FA8BF226810DAC4
:104C90009FED150B53EC102B9DED000B51EC100B01
:104CA00001F094FACDE900016FF0350221F00040E7
:104CB00022600F4B6FF31E5103EB20501044206015
:104CC00041F0FF5040F0005001909DED000B00BFFF
:104CD00002B051EC100B10BD9DED000BF8E7000089
:104CE0000000F07F000000000000000000005043C2
:104CF00002FCFFFF10B508211F48FDF7E5F91F4929
:104D0000087001211E48FDF7DFF91E4908704FF4B5
:104D100000611B48FDF7D8F91B4908701748007857
:104D2000012805D11948007810B9012018490870E8
:104D300014480078012805D11648007810B90120E0
:104D40001549087010480078012807D113480078E9
:104D500020B913480078401C1149087007480078B2
:104D60000A490870074800780A4908700648007820
:104D70000A49087010BD000000000240BC0000207D
:104D8000000C0240BE000020C0000020BD0000203A
:104D9000BB000020BF000020B9000020C10000209F
:104DA000B800002010B505480078012804D1002281
:104DB00001210348FDF790F910BD00009C00002080
:104DC0000000024008B5FDF79FF9FEF7ABFFFEF7C4
:104DD0009BFDFEF7BDFEFEF745FEFEF79DFE584823
:104DE0000068C06840F0100055490968C8601E227C
:104DF00054495348FEF70EFD4FF47A70FDF756F80C
:104E00009FED510A514880ED010A9FED510A80ED56
:104E1000020AFCF785FF92E0FFF782FDFFF73EFCF8
:104E20004C480078012808D100204A490870002227
:104E30006FF007010220FEF7EDFE474800780128D9
:104E400007D1002044490870002208210220FEF703
:104E5000E1FE3220FDF72AF840480078012808D109
:104E60003F4B05221421FEF793FE00203B490870BA
:104E700065E03A480078022805D1FEF735FF0020AA
:104E8000364908705BE03548007803280AD14FF4B2
:104E9000FA73052214210120FEF77AFE00202F4923
:104EA00008704CE02D48007804280BD17220009047
:104EB0003223012269462248FEF7C3FC002027491D
:104EC00008703CE025480078052809D1254B0522CB
:104ED00014210220FEF75CFE0020204908702EE01D
:104EE0001E48007806280AD14FF47A73052214214F
:104EF0000220FEF74DFE0020184908701FE01748F9
:104F00000078072806D10220FEF7D8FE00201349BA
:104F1000087014E011480078082806D10120FEF737
:104F2000CDFE00200D49087009E00C4800780928E2
:104F300005D10120FEF7D8FE0020084908706BE774
:104F4000FC5100203053002000004843D452002080
:104F50000000F042B6000020B700002078000020DA
:104F60000CFEFFFF18FCFFFF2DE9F04105460E4641
:104F70002648076826480068001D00F062FB50B90B
:104F80002348006890F82C100120884021490968C6
:104F9000814320480160681CD8B9D6B11E494868D1
:104FA0001B49096888601A4982680968CA601849FB
:104FB0000968091D8268516015490968091D8160E9
:104FC000154A134909684A6111460968491C11606C
:104FD0001AE07C190E4800684460BC4207D20C48B5
:104FE0000168091D0D48006800F04FFB0CE00848FF
:104FF0000168091D0A48006800F047FB094800687D
:10500000844201D207480460BDE8F081140000200A
:105010000000002018000020A0010020080000204F
:10502000040000203000002010B5044600F054FBBE
:1050300031480068401C304908603048006840B979
:105040002E4804600846006801280DD100F042F99E
:105050000AE02B48006838B928480068C06AE16A4D
:10506000884201D82548046026480068401C25492C
:10507000086008460068606494F82C10012088409D
:1050800021490968084320490860E16A01EB810170
:105090001E4A02EB81014868A0608268E260211D1F
:1050A000826851608160E16A01EB8101174A02EB7D
:1050B00081026261E16A01EB8101144A52F8211018
:1050C000491CE26A02EB8202104B43F8221000F006
:1050D0002DFB0B48006868B108480068C06AE16AA7
:1050E000884207D24FF0805009490860BFF34F8FC4
:1050F000BFF36F8F10BD00001000002000000020E3
:105100001C0000202C00002018000020C4000020FB
:1051100004ED00E010B516E000F0DEFA0C48C068BF
:10512000C468201D00F08DFA0A480068401E094935
:10513000086009480068401E0749086000F0F6FA58
:10514000204600F00BF8044800680028E4D110BDA8
:105150008C010020100000200C00002010B5044637
:10516000206B00F001FB204600F0FEFA10BD0000AD
:1051700030B54FF4A043154800F007042CB1C01D12
:1051800020F00700114C041B1B1B0246104C226030
:1051900000240F4D6C60D018083820F007000D4C2B
:1051A000206000240B4D2D686C600A4D2D682C602A
:1051B0001146441A4C60074C24680C60064D4C683C
:1051C0002C60064D4C682C6030BD0000B4010020FE
:1051D0004C000020540000205C00002058000020FB
:1051E00000BFFFF797FF064800680128F9D94FF084
:1051F000805004490860BFF34F8FBFF36F8FF0E713
:10520000C400002004ED00E02DE9F05F82460F4667
:1052100090469B460A9E0C9C4FEA8801A522206B73
:10522000FBF7AFF9A8F10100216B01EB800929F030
:10523000070909F0070008B9012000E0002050B973
:1052400000BF502080F31188BFF34F8FBFF36F8FE3
:1052500000BF00BFFEE77FB1002507E0795D04F1E4
:1052600034004155785D00B902E06D1C102DF5D376
:1052700000BF002143200155072E01D2012000E08C
:10528000002050B900BF502080F31188BFF34F8F2A
:10529000BFF36F8F00BF00BFFEE7072E00D30626C7
:1052A000E662E664201D00F0EDF904F1180000F05C
:1052B000E9F92461C6F10700A06164625A465146CB
:1052C000484600F03DF920600B9808B10B98046047
:1052D000BDE8F09F10B5002407E004EB84010F4AFD
:1052E00002EB810000F0C1F9641C072CF5D30C48D7
:1052F00000F0BBF90B4800F0B8F90B4800F0B5F925
:105300000A4800F0B2F90A4800F0AFF90448094928
:10531000086004480849086010BD0000C40000206F
:105320005001002064010020780100208C01002041
:10533000A0010020040000200800002010B5014654
:10534000164800E0006803688B42FBD302464368BE
:1053500013448B4204D143684C68234443600146A4
:105360000A464B6813440468A34211D10C4C0368ED
:105370002468A34208D04B680468646823444B60E7
:1053800003681B680B6005E0054B1B680B6001E0C0
:1053900003680B60884200D0016010BD4C00002003
:1053A0005400002009480068006808B9012000E0A6
:1053B000002020B14FF0FF300549086005E00348A8
:1053C0000068C06800680249086070470400002057
:1053D000300000200E480068401C08B9012000E0A1
:1053E000002050B900BF502080F31188BFF34F8FC9
:1053F000BFF36F8F00BF00BFFEE700BF502080F3F8
:105400001188BFF34F8FBFF36F8F00BF00BFFEE760
:10541000400000202DE9F04705464FF0000900F05C
:10542000F1FA4248006808B9FFF7A2FE75B105F02D
:105430000700C0F11008C8F1FF30A84201D20120D6
:1054400000E0002008B9454400E00025012000EB01
:10545000E570002853D0002D51D0354800688542B2
:105460004DD8344E3046046801E026462468606812
:10547000A84202D220680028F7D12C480068844254
:105480003DD0306800F10809206830606068401B3A
:10549000102819D9671907F0070008B9012000E0A2
:1054A000002050B900BF502080F31188BFF34F8F08
:1054B000BFF36F8F00BF00BFFEE76068401B7860DE
:1054C00065603846FFF73AFF194960680968081AAD
:1054D000174908600846006817490968884203D2DE
:1054E0001348006814490860606840F0004060603C
:1054F0000020206011480068401C1049086000F03E
:10550000BFFC09F0070008B9012000E0002050B9F5
:1055100000BF502080F31188BFF34F8FBFF36F8F10
:1055200000BF00BFFEE74846BDE8F08754000020FA
:10553000580000204C0000205C000020600000208B
:10554000001F4FF080730360001F21F00103036010
:10555000001F054B036014380260001F6FF0020348
:105560000360203870470000D5530008B5EEC00A2C
:10557000F1EE10FA02D24FF0FF3070470120FCE745
:1055800008B50120FEF79AFB0520FCF78FFC0220EE
:10559000FEF794FB0520FCF789FC6620009064234D
:1055A000012269460448FEF74CF90120034948707E
:1055B00000200349087008BDFC510020D45200208F
:1055C000B900002008B50120FEF778FB0520FCF7A4
:1055D0006DFC732000906423012269461248FEF797
:1055E00030F93220FCF762FC012010494870104865
:1055F000007840B900200F49087000226FF00801C0
:105600000220FEF707FB0A480078012807D1002096
:1056100009490870002209210220FEF7FBFA002048
:105620000649087008BD0000FC510020D45200203B
:10563000BB000020B6000020B7000020B900002009
:10564000704701460A69D1E901309860D1E9010348
:1056500058605068884201D1886850600020086115
:105660001068401E10601068704700F1080141602A
:105670004FF0FF31816000F10801C160016100213C
:105680000160704700210161704710B502460B6848
:105690005C1C0CB9106907E002F1080000E04068EA
:1056A000446824689C42FAD944684C604C68A16004
:1056B000886041600A611468641C146010BD42680F
:1056C0004A6093688B6093685960916008610368D1
:1056D0005B1C03607047000000BF502080F31188FE
:1056E000BFF34F8FBFF36F8F00BF0E480068401CA1
:1056F0000C49086008460068012812D10A48006871
:10570000C0B208B9012000E0002050B900BF50200D
:1057100080F31188BFF34F8FBFF36F8F00BF00BFBF
:10572000FEE770474000002004ED00E00D480068EF
:1057300050B900BF502080F31188BFF34F8FBFF3E3
:105740006F8F00BF00BFFEE706480068401E054996
:1057500008600846006820B9002080F3118800BF67
:1057600000BF70474000002070B506463546002E49
:105770003BD0083D2C466068C00F50B900BF502098
:1057800080F31188BFF34F8FBFF36F8F00BF00BF4F
:10579000FEE7206808B9012000E0002050B900BFF2
:1057A000502080F31188BFF34F8FBFF36F8F00BF7E
:1057B00000BFFEE76068C00FB8B12068A8B9606894
:1057C00020F00040606000F01DF908496068096839
:1057D0000844064908602046FFF7B0FD0448006809
:1057E000401C0349086000F04BFB70BD58000020CE
:1057F0006400002000204FF0E02108618861064825
:1058000000684FF47A71B0FBF1F0401E4FF0E021D8
:1058100048610720086170477400002070B5044695
:105820000025D4B11248006808B9012000E000202A
:1058300050B900BF502080F31188BFF34F8FBFF3E2
:105840006F8F00BF00BFFEE700F0DCF800212046AC
:10585000FFF78AFB00F014FB05463DB94FF080507E
:1058600004490860BFF34F8FBFF36F8F70BD000016
:105870003C00002004ED00E070B50546FFF72CFF6A
:1058800015B93248006800E028460446201DFFF79D
:10589000D8FE78B9E06A00EB80002D4951F820006D
:1058A00040B994F82C10012088402A4909688143A6
:1058B00028480160A06A18B104F11800FFF7C1FE82
:1058C00025480068401C244908602048006884423C
:1058D00009D1211D2148FFF7F2FE21480068401C34
:1058E0001F49086006E01F480068401E1D49086007
:1058F000FFF758FDFFF71AFF14480068844202D0F2
:105900002046FFF72BFC18480068E8B10F480068F4
:10591000844219D11548006808B9012000E0002030
:1059200050B900BF502080F31188BFF34F8FBFF3F1
:105930006F8F00BF00BFFEE74FF080500C4908603A
:10594000BFF34F8FBFF36F8F70BD000000000020CA
:10595000C4000020180000202C0000208C01002032
:105960000C000020100000201C0000203C00002043
:1059700004ED00E01CB51B4800210B468022CDE958
:10598000001019A11A4800F059F90446012C15D14C
:1059900000BF502080F31188BFF34F8FBFF36F8F8C
:1059A00000BF4FF0FF301349086001201249086022
:1059B00000201249086000F073F810E0601C08B184
:1059C000012000E0002050B900BF502080F3118872
:1059D000BFF34F8FBFF36F8F00BF00BFFEE70848D4
:1059E00000681CBD3400002049444C450000000004
:1059F000E1510008300000201C00002014000020AD
:105A00003800002002480068401C014908607047C7
:105A10003C0000201D48006818B101201C490860A6
:105A200032E000201A4908601A480068B0FA80F095
:105A3000C0F11F0101EB8100174A52F8200008B1A4
:105A4000012000E0002050B900BF502080F31188F1
:105A5000BFF34F8FBFF36F8F00BF00BFFEE701EBB7
:105A600081020D4B03EB820042685268426000F1F4
:105A700008024368934202D1426852684260426819
:105A8000D268064B1A6000BF704700003C0000203F
:105A90002400002018000020C40000200000002086
:105AA0001CB5524800685249884201D0012000E0EC
:105AB000002050B900BF502080F31188BFF34F8FF2
:105AC000BFF36F8F00BF00BFFEE74848006848493A
:105AD000491E884201D0012000E0002050B900BFDB
